:100000000C94EB000C94CB080C949F080C94730890
:100010000C9447080C941B080C94EF070C941C01DB
:100020000C941C010C941C010C941C010C941C01DC
:100030000C941C010C941C010C941C010C941C01CC
:100040000C941C010C941C010C941C010C941C01BC
:100050000C941C010C941C010C941C010C9464065F
:100060000C941C010C943A060C9410060C941C0180
:100070000C941C010C941C010C941C010C941C018C
:100080000C94AE060C941C010C941C010C941C01E5
:100090000C94E6050C94BC050C941C010C941C01FA
:1000A0000C941C010C941C010C94C3070C9497072E
:1000B0000C946B070C941C010C941C010C943107DC
:1000C0000C94DA060C941C010C941C010C949205FF
:1000D0000C9468050C941C010C941C010C941C01DC
:1000E0000C941C010C9446040C94A3010C9466021D
:1000F0000C948E030C94B3020C9489030C94E901C4
:100100000C941A020C940C020C94F8010C94400408
:100110000C94150A00002200250028002B002E0058
:100120003100340002010000050108010B0100004C
:100130002100240027002A002D0030003300010197
:100140000000040107010A01050505050705080867
:100150000808020202020A0A080804040404010151
:100160000101010101010303030303030303040766
:1001700007070C0C0C0C0C0C0C0C020202020606FD
:100180000606060606060B0B0B0B0B0B0B0B0102F0
:100190001020200808102040102040800201020199
:1001A0000804020101020408102040808040201051
:1001B00008040201800402018040201008040201AA
:1001C0000804020101020408102040800102040812
:1001D00010204080150A11241FBECFEFD1E2DEBFF0
:1001E000CDBF00E00CBF25E0AAE4B2E001C01D9243
:1001F000A53DB207E1F712E0A0E0B2E0E2E0FCE2E8
:1002000000E00BBF02C007900D92AA34B107D9F7E6
:1002100010E0CBEED0E000E006C021970109802F6E
:10022000FE010E94E113CA3ED10780E00807A9F74A
:100230000E94A00C0C94FF150C9400000F931F93C8
:10024000CF93DF93EC019A01AB01E889F98982E051
:100250008083EC85FD8510820E851F8560E079E046
:100260008DE390E00E94AB132150310941095109FF
:100270005695479537952795F8012083188EEC8978
:10028000FD8986E08083EA89FB89808180618083A3
:10029000EA89FB89808188608083EA89FB89808183
:1002A00080688083EA89FB8980818F7D8083DF91EC
:1002B000CF911F910F910895FC0174836383858111
:1002C0008430D0F490916900880F23E030E001C0C1
:1002D000220F8A95EAF720952923209369008091BF
:1002E00069009581990F22E030E001C0220F9A95B4
:1002F000EAF7822B809369004581443018F18091A0
:100300006A004450550B440F551F23E030E001C0F4
:10031000220F4A95EAF72095282320936A0020911E
:100320006A0085818450990B880F991F42E050E044
:10033000BA0102C0660F771F8A95E2F7CB01822BC4
:1003400080936A000895AF92BF92CF92DF92EF92AE
:10035000FF920F931F93CF93DF936C017B018B016F
:10036000040F151FEB015E01AE18BF08C017D107BF
:1003700059F06991D601ED91FC910190F081E02D49
:10038000C6011995892B79F7C501DF91CF911F918E
:100390000F91FF90EF90DF90CF90BF90AF900895B6
:1003A000FC01A089B1898C91A689B78982FD0FC013
:1003B0009C91818D8F5F8F73228D821749F0A18D63
:1003C000AE0FBF2FB11D5D969C93818F08958C91C8
:1003D0000895FC01538D448D252F30E0842F90E04B
:1003E000821B930B541710F0CF9608950197089530
:1003F000FC01918D828D981761F0A28DAE0FBF2FF9
:10040000B11D5D968C91928D9F5F9F73928F90E04E
:1004100008958FEF9FEF0895FC01918D828D9817BD
:1004200031F0828DE80FF11D858D90E008958FEFFA
:100430009FEF0895FC01918D228D892F90E0805CC3
:100440009F4F821B91098F739927089581E992E04C
:100450000E941A0221E0892B09F420E0822F0895DE
:100460008EE293E00E941A0221E0892B09F420E039
:10047000822F08958BEC93E00E941A0221E0892BD1
:1004800009F420E0822F0895FC01A48DA80FB92F54
:10049000B11DA35ABF4F2C91848D90E001968F73AC
:1004A0009927848FA689B7892C93A089B1898C91CB
:1004B000837080648C93938D848D981306C002881A
:1004C000F389E02D80818F7D80830895EF92FF92E4
:1004D0000F931F93CF93DF93EC0181E0888F9B8D67
:1004E0008C8D98131AC0E889F989808185FF15C021
:1004F0009FB7F894EE89FF896083E889F989808144
:100500008370806480839FBF81E090E0DF91CF9112
:100510001F910F91FF90EF900895F62E0B8D10E034
:100520000F5F1F4F0F731127E02E8C8D8E110CC0A3
:100530000FB607FCFACFE889F989808185FFF5CFEE
:10054000CE010E944402F1CFEB8DEC0FFD2FF11D87
:10055000E35AFF4FF0829FB7F8940B8FEA89FB892B
:1005600080818062CFCFCF93DF93EC01888D882389
:10057000B9F0AA89BB89E889F9898C9185FD03C006
:10058000808186FD0DC00FB607FCF7CF8C9185FFEB
:10059000F2CF808185FFEDCFCE010E944402E9CFEA
:1005A000DF91CF91089580E090E0892B29F00E949F
:1005B0003A0281110E94000080E090E0892B29F02E
:1005C0000E94300281110E94000080E090E0892B9F
:1005D00029F00E94260281110E94000080E090E034
:1005E000892B49F080E090E0892B29F00E940000DF
:1005F00081110C9400000895863308F086532091F1
:100600007B00982F9870277F922B90937B008770A8
:10061000806480937C0080917A00806480937A006B
:1006200080917A0086FDFCCF8091780090917900CE
:1006300008953FB7F8948091850290918602A09129
:100640008702B091880226B5A89B05C02F3F19F0FC
:100650000196A11DB11D3FBFBA2FA92F982F882742
:10066000BC01CD01620F711D811D911D42E0660F1D
:10067000771F881F991F4A95D1F708958F929F92EF
:10068000AF92BF92CF92DF92EF92FF924B015C014B
:100690000E9419036B017C010E9419036C197D09EA
:1006A0008E099F09683E734081059105A8F321E0FA
:1006B000821A9108A108B10888EEC80E83E0D81EFE
:1006C000E11CF11C81149104A104B10429F7FF90ED
:1006D000EF90DF90CF90BF90AF909F908F90089554
:1006E000FC0184816817A0F470E0660F771F828197
:1006F0009381680F791FDB012D913C91253FB1E07B
:100700003B0710F024EF31E02C593F4F3183208319
:10071000089561E081EC95E00C94700361E081EB59
:1007200095E00C947003FC018689978918161906C8
:10073000C4F4A28DB38D2D913C911197818D820FC0
:10074000932F911D11969C938E93A089B1898C91C2
:10075000978589278C93868997890197978B868BB4
:10076000089590917200808D809589238093720006
:100770000895FC018781882329F08DB39681909597
:1007800098239DBB0380F481E02D1994DC01119620
:10079000ED91FC91129790818C91892B8083089523
:1007A00061110C94C603DC011196ED91FC91129736
:1007B00020818C918095822380830895FC01A18102
:1007C000B2818E919081909598239C9360E0CF01A7
:1007D0000C94D0030F931F93CF93DF938C01EB0105
:1007E0006D2F661F6627661FFC01648B03960E94AF
:1007F000D003CE01D7FF04C0882799278C1B9D0BFF
:10080000F801978B868BCD2B31F080917200908D03
:10081000892B80937200DF91CF911F910F910895E2
:10082000CF93DF93282F880F330BECECF4E0878510
:10083000A901480F511D87FD5A95CA010896C8E0C5
:10084000D0E0BE010E94971387878685A901480FD3
:10085000511D87FD5A95CA010896BE010E94971343
:10086000868780E293E0289FB001299F700D389F12
:10087000700D112480819181DF91CF910C94EA0356
:1008800064E170E08DE795E00C94EA0364E170E0C8
:1008900081E695E00C94EA03DC011196ED91FC9160
:1008A0001297329790818C919823908381E09111D7
:1008B00001C080E008950F931F93CF93DF93EC0165
:1008C0000881198160E0C8010E94D003F801138AF1
:1008D00060E079E1888199810E94EA03EE81FF81DD
:1008E00091E097838CB32681822B8CBB8DB32681BC
:1008F000822B8DBB9D87DF91CF911F910F91089522
:10090000FB0101900020E9F73197AF01461B570B1F
:100910000C94A3018F929F92AF92BF92EF92FF929D
:100920000F931F93CF93DF93CDB7DEB7A1970FB689
:10093000F894DEBF0FBECDBF7C01FA01CB0119A236
:10094000223008F42AE08E010F5D1F4F822E912C79
:10095000B12CA12CBF01A50194010E94AB13F90198
:10096000CA016A300CF5605DD8016E938D01232BAE
:10097000242B252B79F790E080E0109721F0BD0122
:10098000C7010E948004A1960FB6F894DEBF0FBE87
:10099000CDBFDF91CF911F910F91FF90EF90BF904E
:1009A000AF909F908F900895695CDECFCF92DF92D9
:1009B000EF92FF920F931F93CF93DF93EC016A01A5
:1009C0007B016DE20E9466028C0144275527BA0123
:1009D0004C195D096E097F092AE0CE010E948A0444
:1009E000800F911FDF91CF911F910F91FF90EF909A
:1009F000DF90CF900895AC01990F660B770B77FFCE
:100A000004C08BEC93E00C94D6042AE08BEC93E0CA
:100A10000C948A040F931F93CF93DF93EC0188818A
:100A20009981009759F02A813B812617370730F0CA
:100A300081E0DF91CF911F910F9108958B016F5F3E
:100A40007F4F0E940E15009759F0998388831B836E
:100A50000A832C813D81232B59F7FC011082E8CFBA
:100A600080E0E7CFEF92FF920F931F93CF93DF9336
:100A7000EC017B01FB0101900020E9F731978F0128
:100A8000061B170BB8010E940A05288139818111C4
:100A900013C02115310519F0C9010E94851419826E
:100AA00018821D821C821B821A82DF91CF911F91B6
:100AB0000F91FF90EF9008951D830C83B701C9013A
:100AC000DF91CF911F910F91FF90EF900C94F8154B
:100AD0001F920F920FB60F9211240BB60F922F9305
:100AE0003F934F935F936F937F938F939F93AF93B6
:100AF000BF93EF93FF9381E992E00E944402FF913C
:100B0000EF91BF91AF919F918F917F916F915F9185
:100B10004F913F912F910F900BBE0F900FBE0F90F2
:100B20001F9018951F920F920FB60F9211240BB6BB
:100B30000F922F933F934F935F936F937F938F9376
:100B40009F93AF93BF93EF93FF9381E992E00E944D
:100B5000D001FF91EF91BF91AF919F918F917F91C4
:100B60006F915F914F913F912F910F900BBE0F901E
:100B70000FBE0F901F9018951F920F920FB60F92F5
:100B800011240BB60F922F933F934F935F936F9364
:100B90007F938F939F93AF93BF93EF93FF938EE2D7
:100BA00093E00E944402FF91EF91BF91AF919F911A
:100BB0008F917F916F915F914F913F912F910F9006
:100BC0000BBE0F900FBE0F901F9018951F920F92A3
:100BD0000FB60F9211240BB60F922F933F934F93A2
:100BE0005F936F937F938F939F93AF93BF93EF9395
:100BF000FF938EE293E00E94D001FF91EF91BF91AD
:100C0000AF919F918F917F916F915F914F913F91A4
:100C10002F910F900BBE0F900FBE0F901F90189545
:100C20001F920F920FB60F9211240BB60F922F93B3
:100C30003F934F935F936F937F938F939F93AF9364
:100C4000BF93EF93FF938BEC93E00E944402FF91DC
:100C5000EF91BF91AF919F918F917F916F915F9134
:100C60004F913F912F910F900BBE0F900FBE0F90A1
:100C70001F9018951F920F920FB60F9211240BB66A
:100C80000F922F933F934F935F936F937F938F9325
:100C90009F93AF93BF93EF93FF938BEC93E00E94EE
:100CA000D001FF91EF91BF91AF919F918F917F9173
:100CB0006F915F914F913F912F910F900BBE0F90CD
:100CC0000FBE0F901F9018951F920F920FB60F92A4
:100CD00011242F933F938F939F93AF93BF93809152
:100CE000810290918202A0918302B091840230919E
:100CF000800223E0230F2D3758F50196A11DB11D69
:100D0000209380028093810290938202A0938302B9
:100D1000B09384028091850290918602A09187020F
:100D2000B09188020196A11DB11D80938502909318
:100D30008602A0938702B0938802BF91AF919F91E2
:100D40008F913F912F910F900FBE0F901F9018958C
:100D500026E8230F0296A11DB11DD2CF1F920F923C
:100D60000FB60F9211240BB60F922F938F939F9370
:100D7000AF93BF93EF93FF9320917F0290E0E1E662
:100D8000F2E0921748F4A191B1918C91882311F06F
:100D900081508C939F5FF5CFFF91EF91BF91AF9101
:100DA0009F918F912F910F900BBE0F900FBE0F90C0
:100DB0001F9018951F920F920FB60F9211240BB629
:100DC0000F922F933F934F935F936F937F938F93E4
:100DD0009F93AF93BF93CF93DF93EF93FF93C09114
:100DE0006002EC2FF0E0EE0FFF1FEE5AFD4F808106
:100DF000918160E005960E94D003E1E0EC0FE09362
:100E0000600280915102E817B8F4F0E0EE0FFF1F86
:100E1000EE5AFD4FC081D181CE0105960E94C603D6
:100E200080912A0190912B0128813981820F931F93
:100E300090932B0180932A01FF91EF91DF91CF9145
:100E4000BF91AF919F918F917F916F915F914F91E2
:100E50003F912F910F900BBE0F900FBE0F901F90E0
:100E600018951F920F920FB60F9211240BB60F9286
:100E70002F933F934F935F936F937F938F939F93A2
:100E8000AF93BF93CF93DF93EF93FF9310926002E2
:100E9000C0915202D0915302CE0105960E94C60322
:100EA0008881998190932B0180932A01FF91EF9182
:100EB000DF91CF91BF91AF919F918F917F916F9172
:100EC0005F914F913F912F910F900BBE0F900FBEEE
:100ED0000F901F9018951F920F920FB60F9211242A
:100EE0000BB60F922F933F934F935F936F937F9324
:100EF0008F939F93AF93BF93EF93FF9380914F0294
:100F0000909150020E949303FF91EF91BF91AF9196
:100F10009F918F917F916F915F914F913F912F9111
:100F20000F900BBE0F900FBE0F901F9018951F9241
:100F30000F920FB60F9211240BB60F922F933F937F
:100F40004F935F936F937F938F939F93AF93BF93D1
:100F5000EF93FF9380914D0290914E020E94930374
:100F6000FF91EF91BF91AF919F918F917F916F9181
:100F70005F914F913F912F910F900BBE0F900FBE3D
:100F80000F901F9018951F920F920FB60F92112479
:100F90000BB60F922F933F934F935F936F937F9373
:100FA0008F939F93AF93BF93EF93FF9380914B02E7
:100FB00090914C020E949303FF91EF91BF91AF91EA
:100FC0009F918F917F916F915F914F913F912F9161
:100FD0000F900BBE0F900FBE0F901F9018951F9291
:100FE0000F920FB60F9211240BB60F922F933F93CF
:100FF0004F935F936F937F938F939F93AF93BF9321
:10100000EF93FF9380917304909174040E94B9034D
:10101000FF91EF91BF91AF919F918F917F916F91D0
:101020005F914F913F912F910F900BBE0F900FBE8C
:101030000F901F9018951F920F920FB60F921124C8
:101040000BB60F922F933F934F935F936F937F93C2
:101050008F939F93AF93BF93EF93FF93809171040E
:10106000909172040E94B903FF91EF91BF91AF91EB
:101070009F918F917F916F915F914F913F912F91B0
:101080000F900BBE0F900FBE0F901F9018951F92E0
:101090000F920FB60F9211240BB60F922F933F931E
:1010A0004F935F936F937F938F939F93AF93BF9370
:1010B000EF93FF9380916F04909170040E94B903A5
:1010C000FF91EF91BF91AF919F918F917F916F9120
:1010D0005F914F913F912F910F900BBE0F900FBEDC
:1010E0000F901F9018951F920F920FB60F92112418
:1010F0000BB60F922F933F934F935F936F937F9312
:101100008F939F93AF93BF93EF93FF9380916D0461
:1011100090916E040E94B903FF91EF91BF91AF913E
:101120009F918F917F916F915F914F913F912F91FF
:101130000F900BBE0F900FBE0F901F9018951F922F
:101140000F920FB60F9211240BB60F922F933F936D
:101150004F935F936F937F938F939F93AF93BF93BF
:10116000EF93FF9380916B0490916C040E94B903FC
:10117000FF91EF91BF91AF919F918F917F916F916F
:101180005F914F913F912F910F900BBE0F900FBE2B
:101190000F901F9018951F920F920FB60F92112467
:1011A0000BB60F922F933F934F935F936F937F9361
:1011B0008F939F93AF93BF93EF93FF9380916904B5
:1011C00090916A040E94B903FF91EF91BF91AF9192
:1011D0009F918F917F916F915F914F913F912F914F
:1011E0000F900BBE0F900FBE0F901F901895CF93CE
:1011F000DF9390E0FC01E257FE4F2491885B9E4F05
:10120000FC0184918823C1F090E0880F991FFC01B4
:10121000E25DFE4FC591D491FC01EC5EFE4FA591BD
:10122000B4919FB7F8948881E22FE0958E2388834C
:101230008C91E823EC939FBFDF91CF910895DC015F
:1012400090917F02E92FF0E0EE0FFF1FEF59FD4F65
:10125000B183A0839F5F90937F021C92089570E0FA
:10126000FB01E257FE4FE491DC01EC93FB01E85BEC
:10127000FE4FE491F0E0EE0FFF1FEC5EFE4F259174
:101280003491FC013283218308950F931F93CF93F0
:10129000DF93EC018A0105960E942F09EE81FF8100
:1012A00082919D81892B808380915102E82FF0E00B
:1012B000EE0FFF1FEE5AFD4FD183C0838F5F8093E7
:1012C00051020C591F4F19830883DF91CF911F9151
:1012D0000F9108956F927F928F929F92AF92BF92DB
:1012E000CF92EF92FF920F931F93CF93DF93EC0176
:1012F000F42E122F0E942F093E0183E0680E711C0C
:101300006F2DC3010E942F094E0186E0880E911CAB
:10131000612FC4010E942F095E0189E0A80EB11C53
:10132000602FC5010E942F098E01045F1F4F6E2D93
:10133000C8010E942F097E018FE0E80EF11C6C2D80
:10134000C7010E942F0980914A02E82FF0E0EE0FBA
:10135000FF1FE55BFD4FD183C0838F5F80934A02FF
:1013600091E0082E01C0990F0A94EAF7988F9AEF3E
:10137000998F813009F04EC088EA90E09B8F8A8F68
:10138000E981FA8182919881892B8083EC81FD81AA
:1013900082919B81892B8083EF81F88582919E8148
:1013A000892B8083EA85FB8582919985892B8083AF
:1013B000ED85FE8582919C85892B8083E889F9895A
:1013C00082919F85892B8083CE010E94C603C30131
:1013D0000E94C603C4010E94C603C5010E94C60341
:1013E000C8010E94C603C7010E94C60381E08B8B1F
:1013F0008D8B8C8B80E18A8BDF91CF911F910F9128
:10140000FF90EF90CF90BF90AF909F908F907F9084
:101410006F900895823019F48AEA90E0AFCF83305C
:1014200009F0AECF8CEA90E0A9CFCF92EF920F9364
:101430001F93CF93DF93109294021092930248EE81
:1014400053E060E070E04093950250939602609301
:101450009702709398028AE292E0909392028093AE
:10146000910225ED30E030939E0220939D0224ED01
:1014700030E03093A00220939F0220ED30E03093C3
:10148000A2022093A10221ED30E03093A402209328
:10149000A30222ED30E03093A6022093A50226EDB0
:1014A00030E03093A8022093A7021092AA02109273
:1014B000AB021092AC021092AD0210923103109266
:1014C000300340933203509333036093340370939B
:1014D000350390932F0380932E032DEC30E030934F
:1014E0003B0320933A032CEC30E030933D032093F0
:1014F0003C0328EC30E030933F0320933E0329EC7B
:1015000030E030934103209340032AEC30E03093E5
:101510004303209342032EEC30E0309345032093A5
:10152000440310924703109248031092490310920B
:101530004A031092CE031092CD034093CF035093F1
:10154000D0036093D1037093D2039093CC03809324
:10155000CB0385EC90E09093D8038093D70384EC81
:1015600090E09093DA038093D90380EC90E090931D
:10157000DC038093DB0381EC90E09093DE038093A7
:10158000DD0382EC90E09093E0038093DF0386EC30
:1015900090E09093E2038093E1031092E4031092B1
:1015A000E5031092E6031092E70342E350E06AE09D
:1015B00089EC95E00E94450944E650E064E081EC46
:1015C00095E00E94450944E650E06CE089EB95E027
:1015D0000E94450944E650E065E081EB95E00E94F9
:1015E00045094AEF50E067E089EA95E00E94450925
:1015F00042E350E06DE081EA95E00E94450942E354
:1016000050E066E089E995E00E9445098BE0C82E2C
:1016100096E1E92E08E12AE149E16CE18DE795E0E8
:101620000E946A0929E0C22E3CE2E32E0AE228E287
:101630004EE266E281E695E00E946A0948E0C42E27
:101640005EE1E52E00E222E24DE164E285E495E010
:101650000E946A0986E390E090932F0580932E05FF
:101660000E94F70888E390E0909316058093150593
:101670000E94F70864E18BE095E00E942F09CBE01F
:10168000D5E011E010931005D0936C04C0936B0467
:1016900082E08093110565E183E095E00E942F09C7
:1016A0001092080583E095E090936A0480936904A2
:1016B0001093090563E380E095E00E942F0965E33C
:1016C0008DEF94E00E942F0962E085EF94E00E9484
:1016D0002F0984E08093FA0485EF94E090937204DC
:1016E0008093710480E18093FB0463E08DEE94E0CD
:1016F0000E942F0985E08093F2048DEE94E0909390
:1017000074048093730480E28093F30486ED94E084
:101710000E941F0987ED94E00E941F0988ED94E064
:101720000E941F098DE795E09093CD048093CC042F
:1017300081EA95E09093CF048093CE0480E095E019
:101740009093D1048093D004D093D304C093D20457
:101750008CE295E09093D5048093D40480E0EDED85
:10176000F4E0883041F480E0EDEDF4E0843031F0D5
:1017700011928F5FFBCF11928F5FF3CF1092EC0429
:101780001092D9041092DA0483E08093DB04109263
:10179000E50488E694E09093E7048093E60485EB03
:1017A00094E00E941F0986EB94E00E941F0987EBDA
:1017B00094E00E941F0981E695E09093AC04809329
:1017C000AB0489E995E09093AE048093AD048DEF6E
:1017D00094E09093B0048093AF0483E095E09093FD
:1017E000B2048093B10483E195E09093B4048093B4
:1017F000B30480E0ECEBF4E0883041F480E0ECEB03
:10180000F4E0843031F011928F5FFBCF11928F5F43
:10181000F3CF1092CB041092B8041092B90482E076
:101820008093BA041092C404C8E6D4E0D093C604EE
:10183000C093C50488EA94E00E941F0989EA95E0F4
:101840009093A7048093A60411E01093A90410922A
:10185000AA048EE994E00E941F0989EC95E0909318
:1018600099048093980481EC95E090939B04809375
:101870009A0485EF94E090939D0480939C041093C8
:101880009F041092A0041092A104D093A304C093CB
:10189000A204D093A504C093A40480E994E00E941C
:1018A0001F0989EB95E090938B0480938A0481EB68
:1018B00095E090938D0480938C048DEE94E090934A
:1018C0008F0480938E0410939104109292041092CE
:1018D0009304D0939504C0939404D0939704C09339
:1018E0009604109289041092830410928404E0916B
:1018F0008504F0918604C083E0918704F091880408
:10190000C083D0937904C0937804D0937B04C093B0
:101910007A04D0937D04C0937C04D0937F04C09359
:101920007E04109280041093770410927504109234
:101930007604DF91CF911F910F91EF90CF90089592
:10194000CF93DF9300D000D0CDB7DEB7789484B5C5
:10195000826084BD84B5816084BD85B5826085BDAB
:1019600085B5816085BD80916E00816080936E0039
:10197000109281008091810082608093810080912B
:1019800081008160809381008091800081608093DC
:1019900080008091B10084608093B1008091B0009C
:1019A00081608093B000809191008260809391006B
:1019B000809191008160809391008091900081607E
:1019C000809390008091A10082608093A10080911B
:1019D000A10081608093A1008091A000816080932C
:1019E000A0008091210182608093210180912101DA
:1019F000816080932101809120018160809320018A
:101A000080917A00846080937A0080917A0082606D
:101A100080937A0080917A00816080937A0080912F
:101A20007A00806880937A001092C10040E854E800
:101A30006EE170E08BEC93E00E941E018BEC93E072
:101A40000E941A02892B39F468EE73E080E090E07E
:101A50000E943E03F3CF8BEC93E00E94F80140E834
:101A600054E86EE170E081E992E00E941E0140E8D6
:101A700055E260E070E08EE293E00E941E01F8946F
:101A80001092A0001092A1001092A2001092A50046
:101A90001092A4008091A10081608093A1008091A8
:101AA000A10082608093A1000CE211E01093A900D4
:101AB0000093A8001093AB000093AA001093AD0010
:101AC0000093AC0078948BE495E00E94C60360E03C
:101AD0008EE495E00E94D00360E081E595E00E94ED
:101AE000D003A2E0FA2EF09257058DE780935E05B1
:101AF0001092900010929100109295001092940014
:101B0000809191008C60809391008AE698E1909397
:101B1000990080939800409198005091990070E04E
:101B200060E02AE08BEC93E00E948A0468E372E0B4
:101B30008BEC93E00E94800480917100826080931E
:101B4000710080914405282F30E0F901EE0FFF1F4E
:101B5000E05DFA4F61E074E071836083220F331F10
:101B6000D901A65CBA4FE8E9F3E0ED93FC9321E0DC
:101B7000280F30E0D901AA0FBB1FA05DBA4F48E182
:101B800051E04D935C93220F331FD901A65CBA4FED
:101B900044E650E04D935C9322E0280F30E0D901F9
:101BA000AA0FBB1FA05DBA4F9EEAC92EDD24D394B5
:101BB000CD92DC92220F331FD901A65CBA4F20E4EC
:101BC00031E02D933C9323E0280F30E0D901AA0F98
:101BD000BB1FA05DBA4F96E7A92E92E0B92EAD9239
:101BE000BC92220F331FD901A65CBA4FCD92DC9272
:101BF00024E0280F30E0D901AA0FBB1FA05DBA4F27
:101C0000ED93FC93220F331FF901E65CFA4F20E2BB
:101C100033E0318320838B5F8093440580912B05D3
:101C2000282F30E0F901EE0FFF1FE95EFA4F7183B4
:101C30006083220F331FF901EF5DFA4F21E533E096
:101C40003183208321E0280F30E0F901EE0FFF1FE0
:101C5000E95EFA4F51834083220F331FF901EF5D94
:101C6000FA4F1182108222E0280F30E0F901EE0FC6
:101C7000FF1FE95EFA4F4AEF50E051834083220F85
:101C8000331FF901EF5DFA4F26E930E031832083FD
:101C900023E0280F30E0F901EE0FFF1FE95EFA4F55
:101CA00044EF51E051834083220F331FF901EF5D70
:101CB000FA4F1183008324E0280F30E0F901EE0F82
:101CC000FF1FE95EFA4F42E553E051834083220F44
:101CD000331FF901EF5DFA4F28E532E031832083AD
:101CE0008B5F80932B05F092AD0582E292E090939A
:101CF000AC058093AB0583E08093A5058CE192E071
:101D00009093A4058093A305F0929D0586E192E04F
:101D100090939C0580939B05F092CD0582E192E023
:101D20009093CC058093CB05F092BD058EE092E0B8
:101D30009093BC058093BB05F092C5058AE092E0C4
:101D40009093C4058093C305F092B50586E092E0B8
:101D50009093B4058093B305F894109220011092EB
:101D600021011092220110922501109224018091EC
:101D700021018860809321018091210181608093FD
:101D800021018091210182608093210188E893E103
:101D9000909329018093280110932B0100932A012D
:101DA00080917300826080937300809173008460DF
:101DB0008093730078948BE095E00E94DE0383E0CB
:101DC00095E00E94DE0380E095E00E94DE038DEF47
:101DD00094E00E94DE0385EF94E00E94DE038DEE26
:101DE00094E00E94DE0360E474E08BE095E00E94E2
:101DF0005C0166E474E083E095E00E945C0169E8C0
:101E000073E085EF94E00E945C016EE873E08DEE74
:101E100094E00E945C0183E894E09093E70480934F
:101E2000E60484E894E09093C6048093C50485EEAC
:101E300094E09093A3048093A20481E894E09093AB
:101E4000A5048093A40484EC94E09093950480937B
:101E5000940482E894E0909397048093960480EA37
:101E600094E0909386048093850482E994E09093B3
:101E70008804809387048AEA94E09093790480939D
:101E8000780483E994E090937D0480937C0488E651
:101E900094E090937B0480937A0489E892E0909395
:101EA0007F0480937E048CEC94E00E945B048BEAB8
:101EB00094E00E945B0460E080919A0490919B04FE
:101EC0000E94700360E080919804909199040E94B0
:101ED000700360E080918C0490918D040E947003E7
:101EE00060E080918A0490918B040E94700360E00E
:101EF00085E495E00E94D003109258058BEC93E0A6
:101F00000E941A02892B39F468EE73E080E090E0B9
:101F10000E943E03F3CF8BEC93E00E94F8010AE0AD
:101F200034E6432E48EEC42E43E0D42E52E0652E14
:101F300011E063E0562E78E0E72EF12CE5E07E2EEE
:101F4000F5E43F2E85EF94E00E944C0480938F02CD
:101F50008DEE94E00E944C0480938E028BE095E01D
:101F60000E944C0480938D0283E095E00E944C0413
:101F700080938C0280E095E00E944C0480938B0259
:101F80008DEF94E00E944C0480938A021A82198299
:101F90001C821B821E821D8270E060E0CE010196D1
:101FA0000E940A0529813A8181111BC02115310542
:101FB00019F0C9010E9485141A8219821E821D829D
:101FC0001C821B82809190028130E1F090F082307F
:101FD00009F483C0833009F4A5C0812C912C5401ED
:101FE00035C01E821D826AE372E0C9010E94F815A5
:101FF000E9CF6BE372E0CE0101960E9432051093A7
:102000009002EBCF6EE372E0CE0101960E943205A2
:102010008091E9048090E804912C809F800C911CB1
:1020200011248091EA04849D800C911C112420913C
:10203000EB042C9DC0012D9D900D1124880E991E3E
:10204000092C000CAA08BB08609290026BE58EE296
:1020500093E00E9466024D815E8169817A818EE201
:1020600093E00E94A3012AE0B501A4018EE293E06F
:102070000E948A046DE58EE293E00E9466028981E7
:102080009A81009711F00E9485148091D9048130C3
:1020900009F09AC09090DA04A090D404B090D504CE
:1020A000F50182810E94FC02F50191838083208DDD
:1020B000D5011496E0E02E1709F475C04D915D919D
:1020C0008417950740F418964D915C91199748171D
:1020D000590708F469C0EF5FEECF61E472E0CE010A
:1020E00001960E9432058091C8048090C704912C0B
:1020F000809F800C911C11248091C904849D800CC8
:10210000911C11242091CA042C9DC0012D9D900D7D
:102110001124880E991E092C000CAA08BB085092A5
:10212000900294CF64E472E0CE0101960E943205E1
:1021300080908C0228E0829E4001112480918B02C5
:1021400040E1849FC0011124882A992A092C000C9F
:10215000AA08BB0880918F02882A80918A02E0E257
:102160008E9FC0011124092E000CAA0BBB0B882ADC
:10217000992AAA2ABB2A80918E0290E0880F991F83
:1021800020918D02F4E02F9F90011124822B932B3C
:10219000092E000CAA0BBB0B882A992AAA2ABB2A53
:1021A0001092900253CFEFEFA92DB0E0A453BB4F94
:1021B0005196EC931E1644F40E2E000CFF0BE553C3
:1021C000FB4F848D8F5F848F4091E5049091DB04F9
:1021D000E091E604F091E7048081882399F04111B1
:1021E00011C0E92FF0E0E453FB4FA1890A2E000C47
:1021F000BB0BA553BB4F5C968C915C9781505C9652
:102200008C93118A30E020E0E92F990FFF0BA42E68
:10221000B12C4F0187E0880E911CCF01820F931FD4
:10222000B7010E949713DC01A453BB4F51968C91C8
:10223000082E000C990B8A159B0509F0FFC0922E01
:10224000E091DA0430E020E00E2E000CFF0B5F017D
:1022500087E0A80EB11CCF01820F931FB7010E9427
:102260009713DC01A453BB4F51968C91811103C18C
:10227000B22E442331F0992009F41CC1E8E29E12E9
:1022800015C1BB2009F416C1AA24A394F8E2BF1219
:1022900001C0A12C812C8091D0049091D1040E9486
:1022A0004C0481117092D7048091D2049091D30490
:1022B0000E944C04811102C07092D8048091D9040C
:1022C000833009F466C108F0F7C0813009F414C105
:1022D000823009F447C180919F04833009F4E4C13E
:1022E00008F08EC1813009F4ABC1823009F4CAC153
:1022F00081E992E00E941A02892B21F181E992E0A2
:102300000E94F80180938904E0918504F09186048D
:1023100081708083E0918704F09188048091890422
:102320008270808340918404440F80918304482B01
:102330004093890450E070E060E02AE081E992E097
:102340000E948A048BEC93E00E941A02892B39F0D8
:102350008BEC93E00E94F80180538093A1048BE002
:1023600095E00E944C0490E00E94FB0467E472E058
:102370008BEC93E00E9480044091D90450E070E01F
:1023800060E02AE08BEC93E00E948A0467E472E04C
:102390008BEC93E00E9480048091DD04082E000CF9
:1023A000990B0E94FB048091DE04082E000C990B0F
:1023B0000E94FB048091DF04082E000C990B0E9400
:1023C000FB048091E004082E000C990B0E94FB0492
:1023D0008091E104082E000C990B0E94FB0480916F
:1023E000E204082E000C990B0E94FB048091E30488
:1023F000082E000C990B0E94FB048091E404082E27
:10240000000C990B0E94FB0467E472E08BEC93E0F4
:102410000E94800486E30E94FC020E94FB0468E3A1
:1024200072E08BEC93E00E94800464E170E080E055
:1024300090E00E943E030E94D30284CDC401821B1F
:10244000930BB7010E949713DC01A453BB4F519625
:102450008C91082E000C990BA816B90619F4922E2F
:102460009094EECE2F5F3F4F2430310509F0D5CE4A
:1024700098E2992EE5CEC501821B930BB7010E940D
:102480009713DC01A453BB4F51968C91811105C069
:10249000B22EB0944111EFCEF7CE2F5F3F4F2430D4
:1024A000310509F0D8CE88E2B82EF4CF8824839481
:1024B000A12CF1CE812CFCCF843009F483C085306F
:1024C00009F009CF8091E504882311F081E0911093
:1024D00080E0E091E604F091E70480831092EC0440
:1024E0008091D6048111F7CE60E08091CE04909166
:1024F000CF040E94700363C08091E504882311F02B
:1025000081E0911080E0E091E604F091E70480839F
:102510001092EC048091D804811103C03092D90448
:10252000DACE882031F06092D904892D0E941004FF
:10253000D2CEAA2021F06092D9048B2DF7CF8091C2
:10254000D7048111C8CEB110C6CE61E08091CE040F
:102550009091CF040E9470037092D60484E080931F
:10256000D904B9CEE091E604F091E704108210920C
:10257000EC04E091CC04F091CD048689978918167B
:10258000190664F68091D8048111A5CE5092D90421
:10259000A2CEE091E604F091E70410821092EC04E0
:1025A000E091CC04F091CD0486899789181619061C
:1025B0000CF491CE8091D804882309F4AFCF109306
:1025C000D90489CE8091E504882311F081E091102F
:1025D00080E0E091E604F091E70480831092EC043F
:1025E0008091D604811177CE62E08091CE049091E3
:1025F000CF040E9470030093D6047092D9046BCE6E
:10260000843009F477C0853009F072CEE091A204DD
:10261000F091A3041082E091A404F091A50410832A
:1026200080919C0490919D040E944C04882309F49D
:102630005FCE8091A10481115BCE10939F0458CE90
:10264000E091A204F091A3041082E091A404F0911F
:10265000A50410829091A104992309F449CEE09138
:102660009C04F0919D0487838CB39681892B8CBB4D
:102670008DB39681892B8DBB80919F048F5F809352
:102680009F0436CEE091A204F091A3048091A104AE
:102690008083E091A404F091A50410828091A004AD
:1026A000882309F425CEE8CFE091A204F091A30499
:1026B0001082E091A404F091A504108280915B0542
:1026C00090915C05181619060CF412CE61E0809109
:1026D0009804909199040E947003E0919C04F091F9
:1026E0009D0417839DB38681809589238DBB0093BC
:1026F0009E04C2CFE091A204F091A3041082E09165
:10270000A404F091A504108380919E048111F0CD62
:1027100060E080919804909199040E94700360E0B9
:1027200080919A0490919B040E947003A5CF97FB1F
:10273000072E16F4009407D077FD09D00E94CD1320
:1027400007FC05D03EF4909581959F4F08957095B4
:1027500061957F4F0895A1E21A2EAA1BBB1BFD01B4
:102760000DC0AA1FBB1FEE1FFF1FA217B307E40770
:10277000F50720F0A21BB30BE40BF50B661F771FC8
:10278000881F991F1A9469F76095709580959095A8
:102790009B01AC01BD01CF010895AA1BBB1B51E1F8
:1027A00007C0AA1FBB1FA617B70710F0A61BB70BC1
:1027B000881F991F5A95A9F780959095BC01CD0166
:1027C0000895EE0FFF1F881F8BBF0790F691E02D35
:1027D00019940F931F93CF93DF938230910510F4D8
:1027E00082E090E0E091D305F091D40530E020E064
:1027F000B0E0A0E0309799F42115310509F44AC002
:10280000281B390B24303105D8F58A819B8161154D
:10281000710589F1FB0193838283FE0111C0408120
:1028200051810281138148175907E0F04817590771
:1028300099F4109761F012960C93129713961C93CB
:102840003296CF01DF91CF911F910F9108950093A0
:10285000D3051093D405F4CF2115310551F042175B
:10286000530738F0A901DB019A01BD01DF01F8012E
:10287000C1CFEF01F9CF9093D4058093D305CDCF8D
:10288000FE01E20FF31F81939193225031093983A6
:102890002883D7CF2091D1053091D205232B41F445
:1028A00020910202309103023093D2052093D1058A
:1028B00020910002309101022115310541F42DB71C
:1028C0003EB74091040250910502241B350BE09164
:1028D000D105F091D205E217F307A0F42E1B3F0BB0
:1028E0002817390778F0AC014E5F5F4F2417350782
:1028F00048F04E0F5F1F5093D2054093D10581934E
:1029000091939FCFF0E0E0E09CCFCF93DF930097CF
:10291000E9F0FC01329713821282A091D305B091A5
:10292000D405ED0130E020E01097A1F42081318141
:10293000820F931F2091D1053091D20528173907B6
:1029400009F061C0F093D205E093D105DF91CF91FA
:102950000895EA01CE17DF07E8F54A815B819E0101
:1029600041155105B1F7E901FB83EA83499159917A
:10297000C40FD51FEC17FD0761F480819181029689
:10298000840F951FE90199838883828193819B83BA
:102990008A83F0E0E0E012968D919C911397009766
:1029A000B9F52D913C911197CD010296820F931F9D
:1029B0002091D1053091D2052817390739F6309783
:1029C00051F51092D4051092D305B093D205A0937F
:1029D000D105BCCFD383C28340815181840F951F21
:1029E000C817D90761F44E5F5F4F88819981480FFE
:1029F000591F518340838A819B8193838283211550
:102A0000310509F0B0CFF093D405E093D3059ECF04
:102A1000FD01DC01C0CF13821282D7CF4F925F92AB
:102A20006F927F928F929F92AF92BF92CF92DF92DE
:102A3000EF92FF920F931F93CF93DF938C01009738
:102A400099F4CB01DF91CF911F910F91FF90EF90FF
:102A5000DF90CF90BF90AF909F908F907F906F90BE
:102A60005F904F900C94E913FC01E60FF71F9C0157
:102A700022503109E217F30708F4AEC0D901CD9115
:102A8000DC911197C617D70720F1C530D10578F032
:102A9000CE0104978617970750F0C61BD70B2297D5
:102AA000C193D1936D937C93CF010E948514C8018B
:102AB000DF91CF911F910F91FF90EF90DF90CF901A
:102AC000BF90AF909F908F907F906F905F904F904E
:102AD00008955B01AC1ABD0A4C018C0E9D1EA0919D
:102AE000D305B091D405512C412CF12CE12C109739
:102AF00031F58091D1059091D2058815990509F09D
:102B00005CC04616570608F058C0809100029091AC
:102B10000102009741F48DB79EB740910402509195
:102B20000502841B950BE817F90708F055C0F093D0
:102B3000D205E093D105F90171836083B8CF8D91FF
:102B40009C91119712966C90129713967C90139704
:102B5000A815B90559F56C0142E0C40ED11CCA1480
:102B6000DB0420F1AC014A195B09DA0112961597D2
:102B700080F06282738251834083D9016D937C938C
:102B8000E114F10471F0D7011396FC93EE931297C0
:102B90008ECF22968C0F9D1FF90191838083F301C4
:102BA000EFCFF093D405E093D30581CF48165906B3
:102BB00008F42C017D01D3019ACFCB010E94E913C7
:102BC0007C01009749F0AE01B8010E94EF15C801E1
:102BD0000E94851487016BCF10E000E068CFFB01F5
:102BE000DC0102C001900D9241505040D8F7089589
:102BF000FB01DC0101900D920020E1F70895F894AB
:022C0000FFCF04
:102C02000000D50580002C0164002C0164006400E2
:102C1200C20132000E013200C800180132007800F1
:102C22000E01FA003C00000000006602A301E90167
:102C3200B3021A02F8010C020D0A005354004D4B64
:0A2C4200004D440042530020200022
:00000001FF
